:020000040000FA
:100000000C9404040C942C040C942C040C942C04D8
:100010000C942C040C942C040C942C040C942C04A0
:100020000C942C040C942C040C942C040C942C0490
:100030000C942C040C942C040C942C040C942C0480
:100040000C9456080C942C040C942C040C942C0442
:100050000C942C040C942C040C942C040C942C0460
:100060000C942C040C942C0400407A10F35A00A039
:10007000724E18090010A5D4E80000E87648170071
:1000800000E40B54020000CA9A3B000000E1F505B1
:10009000000080969800000040420F000000A086FB
:1000A00001000000102700000000E803000000002D
:1000B0006400000000000A000000000001000000D1
:1000C00000002C76D888DC674F0823DFC1DFAE59EB
:1000D000E1B1B796E5E3E453C63AE651997696E87E
:1000E000E6C28426EB898C9B62ED407C6FFCEFBC02
:1000F0009C9F40F2BAA56FA5F490055A2AF75C932D
:100100006B6CF9676DC11BFCE0E40D47FEF520E662
:10011000B500D0ED902E0300943577050080841E45
:10012000080000204E0A000000C80C333333330FA0
:10013000986E12831141EF8D2114893BE65516CF3D
:10014000FEE6DB18D1844B381BF77C1D901DA4BB49
:10015000E424203284725E228100C9F124ECA1E5FE
:100160003D2700000000240027002A0000000000B6
:10017000250028002B000000000023002600290095
:10018000040404040404040402020202020203033D
:100190000303030301020408102040800102040845
:1001A00010200102040810200000000800020100D5
:1001B0000003040700000000000000000000000031
:1001C000000000000000000000000000000000002F
:1001D000000000000000008080808080C0C0C0C09F
:1001E000C0C06060606060707070707070787878A7
:1001F000787878787C7C7C7C7C7C7C7C7E7E7EFEC7
:10020000FEFEFEFEFEFEFEFEFEFFFFFFFFFFFFFF07
:10021000FEFEFEFEFEFEFEFEFEFCFC0000000000F8
:10022000000000000000E0E0E0E0E0E0E0E00002CC
:10023000C2C2C0C1C1E1E1C1C1C00000000000C034
:10024000C0C0C0E0E0C0C0C0C0C000C0C0C0C0C02E
:10025000C0C00000000000C0C0C0C0C0C00000009E
:100260000000C0C0C0C1C1C1C303070F1F3FFFFFD3
:10027000FFFFFFFFFFFFFFFF3F0F07010000000030
:1002800000000000000000FFFFFFFFFFFFFFFF0076
:1002900000FFFFFFFFFFFFFFFFFFFFFFF000C0FCBD
:1002A000FFFFFF7FFFFFFFFFFFFFFF00011FFFFFBB
:1002B000FFFFFFF80000E0FFFFFF7F7FFFFFFFE091
:1002C0000000F8FFFFFFFF7F0F000000000000C0EC
:1002D000FFFF7F3F1F0F0301000000000000000030
:1002E0000000000000000000FFFFFFFFFFFFFFFF16
:1002F0000000FFFFFFFFFFFFFF011FFFFFFFFFFFEA
:10030000FFFF7F0700FFFFFFFFFFFFFF0000000070
:100310000F7FFFFFFFFFFEFFFFFF0700000FFFFF44
:10032000FFFEFFFFFFFF3F07000000000020180E48
:1003300007030000000000000000000000000000B3
:10034000F0F0F0F0F0F0F0F0F0F1F1F1F1F1F1F1A6
:10035000F1F0F0F1F1F1F1F1F1F1F0F0F1F1F1F191
:10036000F1F1F1F0F0F0F1F1F1F1F1F1F1F0F0F083
:10037000F0F0F0F1F1F1F1F1F1F1F0F0F0F0F0F076
:10038000F1F1F1F1F1F1F1F0F0F0F0F0F0F0F0F066
:10039000F0F0F0F0F0F0F0F0F0F0F0F0F0F0F0F05D
:1003A000F00E182D0D0000000000000000000000FD
:1003B000000000000010383838383838383810005D
:1003C000000000000000000000000000000000002D
:1003D000000000000000000000000000000000001D
:1003E000000000000000000000000000000000000D
:1003F00040E0E0400000000000000002060E0E0E8B
:100400000E0E0E060200000000103838383838385A
:100410003838100000000080C0E0E0E0E0E0E0C01C
:1004200080000000FCFAF60E0E0E0E0E0EF6FAFC20
:100430000000EFC78300000000000083C7EF00004A
:100440007FBFDFE0E0E0E0E0E0DFBF7F0000000032
:1004500000000000000000F0F8FC000000000000B8
:10046000000000000083C7EF000000000000000053
:100470000000001F3F7F00000002060E0E0E0E0E51
:100480000EF6FAFC0000E0D0B83838383838383B7F
:10049000170F00007FBFDFE0E0E0E0E0E0C0800099
:1004A00000000002060E0E0E0E0E0EF6FAFC000004
:1004B000001038383838383838BBD7EF00000080A3
:1004C000C0E0E0E0E0E0E0DFBF7F0000FCF8F0002B
:1004D0000000000000F0F8FC00000F173B3838382F
:1004E000383838BBD7EF00000000000000000000E3
:1004F000001F3F7F0000FCFAF60E0E0E0E0E0E06D9
:10050000020000000F173B383838383838B8D0E0D0
:1005100000000080C0E0E0E0E0E0E0DFBF7F00003E
:10052000FCFAF60E0E0E0E0E0E0602000000EFD7BD
:10053000BB383838383838B8D0E000007FBFDFE04B
:10054000E0E0E0E0E0DFBF7F00000002060E0E0EFC
:100550000E0E0EF6FAFC0000000000000000000085
:100560000083C7EF00000000000000000000001F33
:100570003F7F0000FCFAF60E0E0E0E0E0EF6FAFC91
:100580000000EFD7BB383838383838BBD7EF000019
:100590007FBFDFE0E0E0E0E0E0DFBF7F0000FCFAEB
:1005A000F60E0E0E0E0E0EF6FAFC00000F173B387C
:1005B0003838383838BBD7EF00000080C0E0E0E0C2
:1005C000E0E0E0DFBF7F000608205F0000000000E1
:1005D000000000002F000000000700070000147F4B
:1005E000147F1400242A7F2A120023130864620057
:1005F000364955225000000503000000001C22412E
:1006000000000041221C000014083E0814000808E5
:100610003E0808000000A060000008080808080064
:100620000060600000002010080402003E514945AF
:100630003E0000427F400000426151494600214196
:10064000454B31001814127F1000274545453900ED
:100650003C4A4949300001710905030036494949BE
:100660003600064949291E000036360000000056B3
:100670003600000008142241000014141414140061
:100680000041221408000201510906003249595163
:100690003E007C1211127C007F49494936003E41E0
:1006A000414122007F4141221C007F4949494100CC
:1006B0007F09090901003E4149497A007F0808087D
:1006C0007F0000417F4100002040413F01007F0842
:1006D000142241007F40404040007F020C027F0016
:1006E0007F0408107F003E4141413E007F09090917
:1006F00006003E4151215E007F0919294600464906
:100700004949310001017F0101003F4040403F0065
:100710001F2040201F003F4038403F006314081452
:100720006300070870080700615149454300007FD6
:10073000414100AA55AA55AA55000041417F000039
:100740000402010204004040404040000003050054
:1007500000002054545478007F4844443800384402
:1007600044442000384444487F003854545418000E
:10077000087E0901020018A4A4A47C007F080404D8
:10078000780000447D4000004080847D00007F10A0
:100790002844000000417F4000007C0418047800D9
:1007A0007C0804047800384444443800FC242424A1
:1007B000180018242418FC007C080404080048547D
:1007C00054542000043F444020003C4040207C0022
:1007D0001C2040201C003C4030403C004428102895
:1007E00044001CA0A0A07C004464544C44000010B1
:1007F0007C8200000000FF00000000827C100000EE
:100800000006090906004D0B11241FBECFEFD8E0EA
:10081000DEBFCDBF21E0ACE1B1E001C01D92AF333E
:10082000B207E1F711E0A0E0B1E0E6E0F1E202C0DA
:1008300005900D92AC31B107D9F714E0C4E0D4E0D3
:1008400004C02197FE010E944F0FC330D107C9F7A2
:100850000E94A0080C9481100C940000803891052F
:1008600028F5209138012617170601F1F8F09B01B1
:1008700043E0369527954A95E1F73695322F2227A2
:1008800037952795820F931FE0913401F091350140
:10089000E80FF91F6770772721E030E001C0220FD1
:1008A0006A95EAF72095808128232083089580386F
:1008B000910520F52091380126171706F9F0F0F080
:1008C0009B0143E0369527954A95E1F73695322FFF
:1008D000222737952795820F931FE0913401F091DD
:1008E0003501E80FF91F6770772721E030E001C07C
:1008F000220F6A95EAF78081822B80830895A9E20E
:10090000B1E015969C938E931497FC012491169652
:100910002C9316973196E4911796EC931797FC0158
:100920003296E4911896EC9318970396FC01849103
:1009300019968C9319971A961C920895833081F01A
:1009400028F4813099F08230A9F008958730A9F019
:100950008830C9F08430B1F4809180008F7D03C06D
:10096000809180008F7780938000089584B58F7781
:1009700084BD089584B58F7DFBCF8091B0008F77C3
:100980008093B00008958091B0008F7DF9CFCF9310
:10099000DF93282F30E0F901E855FE4F8491F901EB
:1009A000EC56FE4FD491F901E058FE4FC491CC2390
:1009B000A1F081110E949E04EC2FF0E0EE0FFF1FCA
:1009C000EA58FE4FA591B491EC91ED2381E090E0BF
:1009D00009F480E0DF91CF91089580E090E0FACFB4
:1009E0001F93CF93DF93282F30E0F901E855FE4F96
:1009F0008491F901EC56FE4FD491F901E058FE4F75
:100A0000C491CC23A9F0162F81110E949E04EC2FD3
:100A1000F0E0EE0FFF1FE459FE4FA591B4918FB7A0
:100A2000F894EC91111108C0D095DE23DC938FBFB0
:100A3000DF91CF911F910895DE2BF8CFCF93DF93F5
:100A400090E0FC01EC56FE4F249180589E4FFC0133
:100A500084918823D1F090E0880F991FFC01EE5912
:100A6000FE4FA591B491FC01E459FE4FC591D4917C
:100A700061110EC09FB7F8948C91E22FE0958E2300
:100A80008C932881E223E8839FBFDF91CF91089563
:100A90008FB7F894EC91E22BEC938FBFF6CF60E028
:100AA00080912A010E941E0561E0809129010E9427
:100AB000F00480912A010E94C7040197D1F360E0FD
:100AC000809129010C94F004CF93DF93C9E2D1E027
:100AD00061E089810E941E0560E089810E94F00426
:100AE00061E088810E94F00461E089810E94F00445
:100AF00060E08981DF91CF910C941E052091000167
:100B000090E4299F900111248E50822B80937C00C9
:100B100080917A00806480937A0080917A0086FDCB
:100B2000FCCF809178009091790008953FB7F894B8
:100B300080911D0190911E01A0911F01B091200193
:100B400026B5A89B05C02F3F19F00196A11DB11D28
:100B50003FBFBA2FA92F982F8827BC01CD01620F64
:100B6000711D811D911D43E0660F771F881F991F1E
:100B70004A95D1F708958F929F92AF92BF92CF92EC
:100B8000DF92EF92FF924B015C010E9496056B0190
:100B90007C010E9496056C197D098E099F09683EAB
:100BA000734081059105A8F321E0821A9108A108FC
:100BB000B10888EEC80E83E0D81EE11CF11C811438
:100BC0009104A104B10429F7FF90EF90DF90CF903A
:100BD000BF90AF909F908F9008950F931F93CF93E6
:100BE000DF93082F162FD42FC8E06D2F661F6627BE
:100BF000661F802F0E94F004DD0F61E0812F0E94AC
:100C0000F00460E0812F0E94F004C15071F7DF9181
:100C1000CF911F910F910895CF93DF93C9E2D1E057
:100C200061E089810E941E0561E089810E94F004D3
:100C300061E088810E94F00460E089810E94F004F4
:100C400060E088810E94F00448E768818981DF9133
:100C5000CF910C94ED051F93CF93DF93182FC9E22A
:100C6000D1E061E089810E941E05412F6881898160
:100C7000DF91CF911F910C94ED05CF9390912C01B2
:100C8000992341F194EE9093BC009091BC0097FFA2
:100C9000FCCF98E79093BB0094EC9093BC009091AC
:100CA000BC0097FFFCCF1092BB0094EC9093BC006B
:100CB0009091BC0097FFFCCF8093BB0084EC8093A5
:100CC000BC008091BC0087FFFCCF84E98093BC000E
:100CD000CF910895C82F0E940C060E944F0580E016
:100CE0000E942B060E944F058C2F0E942B060E940B
:100CF0004F05CF910C9464051F93CF93DF93F89425
:100D000081E20E943D0680E00E943D068FE70E943E
:100D10003D0682E20E943D0680E00E943D0687E09B
:100D20000E943D0680912C018823D1F184EE8093AE
:100D3000BC008091BC0087FFFCCF88E78093BB009C
:100D400084EC8093BC008091BC0087FFFCCF80E4E2
:100D50008093BB0084EC8093BC008091BC0087FF33
:100D6000FCCFD0E0C0E014EC90912C012091360132
:100D700030913701C217D30710F5E0913401F0919B
:100D80003501EC0FFD1F80819923A1F08093BB00FA
:100D90001093BC008091BC0087FFFCCF2196E4CF6C
:100DA0000E940C060E944F0580E40E942B060E94C0
:100DB0004F05D7CF0E942B060E944F05EFCF9923F6
:100DC00041F084E98093BC007894DF91CF911F912A
:100DD00008950E946405F8CF2F923F924F925F9240
:100DE0006F927F928F929F92AF92BF92CF92DF923B
:100DF000EF92FF920F931F93CF93DF93CDB7DEB7A0
:100E000028970FB6F894DEBF0FBECDBF78876F83EB
:100E10005C834B83FC0101900020E9F731971F01AF
:100E2000281A390A6F30774209F083C040912F01A8
:100E3000429D9001439D300D112440E850E0421B3B
:100E4000530B58874F839A838983712C612C6214CA
:100E500073040CF012C190912F01969D7001979D23
:100E6000F00C11242F813885E20EF31EE981FA81FE
:100E70002191FA83E9838091300130913101231B64
:100E8000330B482F477009F08EC08695869586955E
:100E9000899FC0011124829FA001839F500D929FC2
:100EA000500D11249A012C5F3F4F3E832D834B80C0
:100EB0005C80B12CA12C8091300186958695869519
:100EC0008A151B0409F00CF4D4C08D809E80870124
:100ED00020912F01C8018E199F092817190609F0C2
:100EE0000CF45AC0D12CC12C80912F018A9DF001A5
:100EF0008B9DF00D1124CF01880D991DE0912D01DE
:100F0000F0912E01E80FF91FE49180913301B601B1
:100F1000640D751DF0E00C2C02C0F595E7950A9460
:100F2000E2F7E0FF26C0811126C0C8010E945704E5
:100F300025C0EF81F885EE30F74209F084CF40916B
:100F40002F01429D9001439D300D112440E850E057
:100F5000421B530B5A83498357FF04C04F5F5F4FB7
:100F60005A834983E981FA81F595E795F887EF83FC
:100F70006ACF8111DACFC8010E942E043FEFC31A55
:100F8000D30A48E0C416D10409F0AECF0F5F1F4F5B
:100F90005FEF851A950A9CCF8FEFA81AB80A98E0E0
:100FA000490E511C88CF989FC001112443E09595AC
:100FB00087954A95E1F7829F6001839FD00C929FAD
:100FC000D00C1124E4E0CE0ED11CE0912D01F09163
:100FD0002E01EC0DFD1DE4914E2E512C870157E0A2
:100FE000A52EB12C20912F01C8018E199F09281719
:100FF000190609F00CF43DC0912C812C8091300130
:101000008815190499F194F1809133016B817C81E9
:10101000680D791D92010A2C02C0359527950A9416
:10102000E2F720FF06C0811106C0C8010E945704E4
:1010300005C08111FACFC8010E942E04F1E0AF1A59
:10104000B108B7FE0FC02FEFC21AD20AE0912D01EE
:10105000F0912E01EC0DFD1DE4914E2E512C87E0F8
:10106000A82EB12C3FEF831A930AC8CF0F5F1F4FF2
:10107000B9CF4FEF641A740AEACE28960FB6F894E7
:10108000DEBF0FBECDBFDF91CF911F910F91FF90BB
:10109000EF90DF90CF90BF90AF909F908F907F9018
:1010A0006F905F904F903F902F9008951F920F92F6
:1010B0000FB60F9211242F933F938F939F93AF936B
:1010C000BF938091210190912201A0912301B091C1
:1010D000240130911C0126E0230F2D3758F502968C
:1010E000A11DB11D20931C01809321019093220129
:1010F000A0932301B093240180911D0190911E01C2
:10110000A0911F01B09120010196A11DB11D8093F6
:101110001D0190931E01A0931F01B0932001BF9168
:10112000AF919F918F913F912F910F900FBE0F9094
:101130001F90189529E8230F0396A11DB11DD2CF4A
:10114000CF93DF93CDB7DEB76B970FB6F894DEBFC2
:101150000FBECDBF789484B5826084BD84B58160B4
:1011600084BD85B5826085BD85B5816085BD809172
:101170006E00816080936E001092810080918100EA
:1011800082608093810080918100816080938100E2
:10119000809180008160809380008091B1008460A4
:1011A0008093B1008091B00081608093B000809105
:1011B0007A00846080937A0080917A0082608093C4
:1011C0007A0080917A008E7F80937A0080917A00F5
:1011D000806880937A001092C10080E48093380187
:1011E0008FE38093390182E180933A0180E094E0BB
:1011F00090933701809336010E94550F90933501EB
:1012000080933401892B09F43DC280912B018F3FDB
:10121000F1F061E00E941E0561E080912B010E94C7
:10122000F00461E070E080E090E00E94BB0560E0C7
:1012300080912B010E94F0046AE070E080E090E071
:101240000E94BB0561E080912B010E94F004809117
:10125000290190912A01923109F00EC2833109F0DF
:101260000BC281E080932C0161E082E10E94F004D6
:1012700061E083E10E94F0048091B9008E7F809349
:10128000B9008091B9008D7F8093B90082E080938E
:10129000B80085E08093BC008EEA0E943D0685ED93
:1012A0000E943D0680E80E943D0688EA0E943D06B5
:1012B000809139010E943D0683ED0E943D0680E049
:1012C0000E943D0680E40E943D068DE80E943D0696
:1012D00084E10E943D0680E20E943D0680E00E947B
:1012E0003D0681EA0E943D0688EC0E943D068AED9B
:1012F0000E943D0680913A010E943D0681E80E94CD
:101300003D068FEC0E943D0689ED0E943D0681EF6F
:101310000E943D068BED0E943D0680E40E943D0642
:1013200084EA0E943D0686EA0E943D068FEA0E94FA
:101330003D06409136015091370170E060E08091A8
:101340003401909135010E947A100E947C0610921F
:101350002E0110922D0187EC95E00E947F0483E01E
:1013600080930001409136015091370170E060E0B8
:1013700080913401909135010E947A100EE010E0C6
:1013800031E6732EAA24A394B12CC8010E97AC01A8
:1013900023E0559547952A95E1F7749E9001759E37
:1013A000300D112487709927450102C0880C991CC3
:1013B0008A95E2F7F12CE12CC90184549E4F6C010F
:1013C000F601EE0DFF1DE491C7010F96F0E0E82154
:1013D000F921B801EF2B09F456C10E9457049FEF81
:1013E000E91AF90A81E6E816F10451F70F5F1F4F79
:1013F0000233110551F60E947C066AEF70E080E02E
:1014000090E00E94BB0505E010E087EA0E943D06DF
:1014100064E670E080E090E00E94BB0586EA0E94EE
:101420003D066AEF70E080E090E00E94BB0501504D
:10143000110959F761E083E00E941E0561E081E136
:101440000E941E0561E084E00E941E0561E085E1C6
:101450000E941E0560E083E00E94F00460E081E1EC
:101460000E94F00460E084E00E94F00460E085E106
:101470000E94F0042FB7F8948091210190912201ED
:10148000A0912301B09124012FBF80932501909357
:101490002601A0932701B093280180E0E82E80E088
:1014A000F82E409136015091370170E060E0809154
:1014B0003401909135010E947A1087EC95E00E94EA
:1014C0007F0448E050E070E060E087E091E00E9437
:1014D000EC064EE150E070E060E08CE091E00E94AC
:1014E000EC064EE150E06EE077E281E191E00E948F
:1014F000EC064EE150E06FE077E287E191E00E9478
:10150000EC0681EA93E00E947F0461E085E10E949D
:10151000F00460E081E10E94F00462E370E080E0AA
:1015200090E00E94BB058FE00E947E05BC01990FF0
:10153000880B990B0E94AD0D2AE93AE34FE452E47F
:101540000E94DD0E8E010F5F1F4F22E040E00E94DF
:10155000560B50E040E06EE077E2C8010E94EC06D6
:1015600087EC95E00E947F0422E040E060E070E0BC
:1015700080EA90E40E94560B48E250E070E060E0A0
:10158000C8010E94EC0660E085E10E94F0048EE054
:101590000E947E05BC01990F880B990B0E94AD0D2E
:1015A0002BED3CED4CE150E40E94E80D21E040E0E1
:1015B0000E94560B48E250E06EE077E2C8010E94BC
:1015C000EC0684E10E947E05BC01990F880B990B03
:1015D0000E94AD0D20E030E048EC52E40E94DD0EA8
:1015E00022E040E00E94560B48E250E06FE077E2D4
:1015F000C8010E94EC060E947C068DE00E94C70490
:10160000892B99F42FB7F8948091210190912201B0
:10161000A0912301B09124012FBF809325019093C5
:101620002601A0932701B09328016AEF70E080E0C3
:1016300090E00E94BB058FB7F89440912101509132
:10164000220160912301709124018FBF80912501B7
:1016500090912601A0912701B0912801805D9A48C0
:10166000AF4FBF4F84179507A607B70778F461E01F
:1016700083E00E94F004FFCF10922C0161E00E94F1
:101680001E050ACEFFCF0E942E04A9CEE114F1045C
:1016900009F407CF0E94000004CFE9E2F1E082E103
:1016A000818383E180838FEF82830895EF920F938C
:1016B0001F93CF93DF93E80134E047FD34E1042E1C
:1016C000000C550B57FF03C0519541955109E32E6E
:1016D000022F242FAE010E94740BCE01DF91CF9117
:1016E0001F910F91EF900895A9E0B0E0EAE7FBE0C9
:1016F0000C94AC0E6A01F22EB02E102FFBE3AF2E2D
:10170000A01608F41BE31F5F012F27E0AE014F5F17
:101710005F4F0E94D30CBC018981982F9970913042
:1017200009F43FC09BE2E1FC04C09E2D9170E0FCF7
:101730003AC05E2D5071E82FE87083FF46C084E008
:10174000911101C083E0EF2DE81B8F1508F0E0E058
:10175000D6018E2F20E2552351F1992329F0D6018D
:101760009C93C60101966C0196012D5F3F4FE2FEEE
:1017700024C08EE4D6018C9391E411969C9311972A
:1017800012968C93D9018E2F90E281111BC0E20F2B
:10179000F32FF11D10828EEF9FEF2996ECE00C9451
:1017A000C80E9DE2C6CF90E2C4CF2D938150811127
:1017B000FCCFCE0ED11CE0E0D0CF8EE6D6018C93CC
:1017C00091E6DBCF9D938150E0CF482F447082FF9C
:1017D0003DC084E0911101C083E08F1510F4EF2D1E
:1017E000E81BD6018E2F20E2552309F1992329F019
:1017F000D6019C93C60101966C0196012D5F3F4F67
:10180000E2FE1BC089E4D6018C938EE411968C9382
:10181000119786E412968C93D9018E2F90E288233B
:1018200009F4B5CF9D938150FACF2D93815081114A
:10183000FCCFCE0ED11CE0E0D9CF89E6D6018C9347
:101840008EE611968C93119786E6E4CF9B0177FF85
:1018500002C030E020E0A1E0B0E0911102C0B0E0B1
:10186000A0E0F9013196AE0FBF1F8B2C912CBB204D
:1018700009F461C05401EFEFAE1ABE0AAA0DBB1DF8
:10188000FA161B0619F014F04F2D4A1B511188C08F
:10189000E3FC59C07601A42FB0E2A1114FC0C40EE1
:1018A000D11C992309F45BC040E0D6011196F601E2
:1018B00090836D01552309F448C0012F060F9A81CA
:1018C000582F507184FF03C0913309F40150101652
:1018D0000CF047C0093008F008E0EEE2FE2E5B0194
:1018E000A01AB10885019194819491082F3F320785
:1018F00029F4D601FC92F60131966F016217730745
:1019000094F1021713077CF5DB01A21BB30BAA2489
:10191000A394B12CAC0EBD1EAA0DBB1D11968C91CB
:1019200021503109D601119628153905F4F0F60138
:1019300080836D01DBCFB12CA12CA0CFF701B19337
:101940007F01A150AACF9111B0CFD601942F50E3BF
:1019500002C05D9391509111FCCFC40ED11C40E0A8
:10196000ACCF01E0BACF80E3DBCF6217730731F46D
:10197000963388F4953311F4552369F0F60180838A
:10198000FD01842F90E2811108C0A40FB11D1C92AB
:1019900090E080E002CF81E3F1CF91938150F3CFCB
:1019A000911183CF8ACF283008F027E03327DA015E
:1019B000990F311D87FD916000966105710539F41D
:1019C00032602E5F3D9330E32A95E1F708959F3F03
:1019D00030F080387105610509F03C5F3C5F3D9354
:1019E000913008F08068911DDF93CF931F930F9380
:1019F000FF92EF92192F987F9695E92F96959695DD
:101A0000E90FFF27EE53FF4F99273327EE24FF24DA
:101A1000A701E70105900894079428F4360FE71E04
:101A2000F81E491F511D660F771F881F991F0694C6
:101A3000A1F70590079428F4E70EF81E491F561FDA
:101A4000C11D770F881F991F661F0694A1F7059087
:101A5000079428F4F80E491F561FC71FD11D880F81
:101A6000991F661F771F0694A1F70590079420F42D
:101A7000490F561FC71FD81F990F661F771F881F52
:101A80000694A9F784911095177041F0D695C795E3
:101A900057954795F794E7941A95C1F7E8E6F0E073
:101AA00068941590159135916591959105907FE217
:101AB0007395E118F10A430B560BC90BD009C0F717
:101AC000E10CF11E431F561FC91FD01D7EF4703359
:101AD00011F48A95E6CFE894015030F0080F0AF42B
:101AE0000027021708F4202F2395022F7A3328F0BD
:101AF00079E37D932A95E9F710C07D932A9589F6BD
:101B0000069497956795379517951794E118F10AFC
:101B1000430B560BC90BD00998F023957E91739512
:101B20007A3308F070E37C932013B8F77E917061EC
:101B30007D9330F0839571E37D9370E32A95E1F70F
:101B40001124EF90FF900F911F91CF91DF91992772
:101B500087FD90950895E89409C097FB3EF4909511
:101B60008095709561957F4F8F4F9F4F9923A9F076
:101B7000F92F96E9BB279395F69587957795679505
:101B8000B795F111F8CFFAF4BB0F11F460FF1BC049
:101B90006F5F7F4F8F4F9F4F16C0882311F096E9DC
:101BA00011C0772321F09EE8872F762F05C066238A
:101BB00071F096E8862F70E060E02AF09A95660F43
:101BC000771F881FDAF7880F9695879597F90895FC
:101BD0000E94FB0D0C946C0E0E945E0E38F00E9469
:101BE000650E20F0952311F00C94550E0C945B0EAD
:101BF00011240C94A00E0E947D0E70F3959FC1F3EA
:101C0000950F50E0551F629FF001729FBB27F00DAA
:101C1000B11D639FAA27F00DB11DAA1F649F6627FF
:101C2000B00DA11D661F829F2227B00DA11D621F4E
:101C3000739FB00DA11D621F839FA00D611D221F08
:101C4000749F3327A00D611D231F849F600D211DEC
:101C5000822F762F6A2F11249F5750409AF0F1F06F
:101C600088234AF0EE0FFF1FBB1F661F771F881FD8
:101C700091505040A9F79E3F510580F00C94550EAD
:101C80000C94A00E5F3FE4F3983ED4F386957795CD
:101C90006795B795F795E7959F5FC1F7FE2B880F7E
:101CA000911D9695879597F9089597F99F6780E814
:101CB00070E060E008959FEF80EC089500240A949E
:101CC0001616170618060906089500240A94121617
:101CD0001306140605060895092E0394000C11F44A
:101CE000882352F0BB0F40F4BF2B11F460FF04C0F7
:101CF0006F5F7F4F8F4F9F4F089557FD9058440F50
:101D0000551F59F05F3F71F04795880F97FB991F5A
:101D100061F09F3F79F08795089512161306140617
:101D2000551FF2CF4695F1DF08C0161617061806A4
:101D3000991FF1CF86957105610508940895E8947F
:101D4000BB2766277727CB0197F908952F923F92FB
:101D50004F925F926F927F928F929F92AF92BF92BB
:101D6000CF92DF92EF92FF920F931F93CF93DF9367
:101D7000CDB7DEB7CA1BDB0B0FB6F894DEBF0FBEC4
:101D8000CDBF09942A88398848885F846E847D8411
:101D90008C849B84AA84B984C884DF80EE80FD8013
:101DA0000C811B81AA81B981CE0FD11D0FB6F89489
:101DB000DEBF0FBECDBFED0108950E94F10E0C9461
:101DC0006C0E0E94650E58F00E945E0E40F029F4E1
:101DD0005F3F29F00C94550E51110C94A00E0C94F9
:101DE0005B0E0E947D0E68F39923B1F3552391F3A6
:101DF000951B550BBB27AA2762177307840738F07A
:101E00009F5F5F4F220F331F441FAA1FA9F335D0D6
:101E10000E2E3AF0E0E832D091505040E695001C8A
:101E2000CAF72BD0FE2F29D0660F771F881FBB1F44
:101E3000261737074807AB07B0E809F0BB0B802D22
:101E4000BF01FF2793585F4F3AF09E3F510578F04E
:101E50000C94550E0C94A00E5F3FE4F3983ED4F31F
:101E6000869577956795B795F7959F5FC9F7880F22
:101E7000911D9695879597F90895E1E0660F771F74
:101E8000881FBB1F621773078407BA0720F0621B05
:101E9000730B840BBA0BEE1F88F7E0950895EE0FD5
:101EA000FF1F0590F491E02D09940F931F93CF939A
:101EB000DF938230910510F482E090E0E0913D01E3
:101EC000F0913E0130E020E0B0E0A0E0309799F4DE
:101ED0002115310509F44AC0281B390B243031057E
:101EE000D8F58A819B816115710589F1FB01938386
:101EF0008283FE0111C04081518102811381481704
:101F00005907E0F04817590799F4109761F01296B5
:101F10000C93129713961C933296CF01DF91CF91B9
:101F20001F910F91089500933D0110933E01F4CF4E
:101F30002115310551F04217530738F0A901DB0193
:101F40009A01BD01DF01F801C1CFEF01F9CF9093F4
:101F50003E0180933D01CDCFFE01E20FF31F81933F
:101F600091932250310939832883D7CF20913B01A7
:101F700030913C01232B41F4209103013091040165
:101F800030933C0120933B012091010130910201EB
:101F90002115310541F42DB73EB74091050150910F
:101FA0000601241B350BE0913B01F0913C01E21747
:101FB000F307A0F42E1B3F0B2817390778F0AC016C
:101FC0004E5F5F4F2417350748F04E0F5F1F509349
:101FD0003C0140933B01819391939FCFF0E0E0E07F
:101FE0009CCFCF93DF930097E9F0FC0132971382E7
:101FF0001282A0913D01B0913E01ED0130E020E060
:102000001097A1F420813181820F931F20913B0111
:1020100030913C012817390709F061C0F0933C0169
:10202000E0933B01DF91CF910895EA01CE17DF07DE
:10203000E8F54A815B819E0141155105B1F7E9013F
:10204000FB83EA8349915991C40FD51FEC17FD0713
:1020500061F4808191810296840F951FE901998333
:102060008883828193819B838A83F0E0E0E01296EB
:102070008D919C9113970097B9F52D913C911197F3
:10208000CD010296820F931F20913B0130913C01BC
:102090002817390739F6309751F510923E01109202
:1020A0003D01B0933C01A0933B01BCCFD383C283DD
:1020B00040815181840F951FC817D90761F44E5F85
:1020C0005F4F88819981480F591F518340838A81CE
:1020D0009B81938382832115310509F0B0CFF09362
:1020E0003E01E0933D019ECFFD01DC01C0CF138294
:1020F0001282D7CFDC0101C06D9341505040E0F710
:102100000895F894FFCF0100003F01800056696EEA
:102110003A00566F757400495B6D415D0042617411
:022120000000BD
:107800000C94343C0C94513C0C94513C0C94513CE1
:107810000C94513C0C94513C0C94513C0C94513CB4
:107820000C94513C0C94513C0C94513C0C94513CA4
:107830000C94513C0C94513C0C94513C0C94513C94
:107840000C94513C0C94513C0C94513C0C94513C84
:107850000C94513C0C94513C0C94513C0C94513C74
:107860000C94513C0C94513C11241FBECFEFD8E036
:10787000DEBFCDBF11E0A0E0B1E0EAE8FFE702C063
:1078800005900D92A230B107D9F712E0A2E0B1E065
:1078900001C01D92AD30B107E1F70E942D3D0C945F
:1078A000C33F0C94003C982F95959595959595958B
:1078B000905D8F708A307CF0282F295A8091C0000B
:1078C00085FFFCCF9093C6008091C00085FFFCCF60
:1078D0002093C6000895282F205DF0CF982F809127
:1078E000C00085FFFCCF9093C6000895EF92FF92F1
:1078F0000F931F93EE24FF2487018091C00087FD22
:1079000017C00894E11CF11C011D111D81E2E8164D
:1079100081EAF80687E0080780E0180770F3E09135
:107920000401F091050109958091C00087FFE9CF1E
:107930008091C6001F910F91FF90EF9008950E94D3
:10794000763C982F8091C00085FFFCCF9093C600B5
:1079500091362CF490330CF09053892F089597555D
:10796000892F08951F930E949F3C182F0E949F3CCF
:107970001295107F810F1F9108951F93182F882350
:1079800021F00E94763C1150E1F71F9108951F935A
:10799000182F0E94763C803249F0809103018F5F5E
:1079A000809303018530C1F01F9108958091C0003C
:1079B00085FFFCCF84E18093C6008091C00085FFE5
:1079C000FCCF1093C6008091C00085FFFCCF80E102
:1079D0008093C6001F910895E0910401F091050184
:1079E00009951F9108950E94763C803241F0809164
:1079F00003018F5F80930301853081F008958091AA
:107A0000C00085FFFCCF84E18093C6008091C00058
:107A100085FFFCCF80E18093C6000895E0910401CA
:107A2000F09105010995089548EC50E08823A1F0F4
:107A30002D9A28EE33E0FA013197F1F721503040CA
:107A4000D1F72D9828EE33E0FA013197F1F7215064
:107A50003040D1F7815061F708953F924F925F9285
:107A60006F927F928F929F92AF92BF92CF92DF924E
:107A7000EF92FF920F931F93CF93DF93000082E06A
:107A80008093C00080E18093C4001092C50088E11B
:107A90008093C10086E08093C2005098589A259A3E
:107AA00081E00E94143D24E1F22E9EE1E92E85E959
:107AB000D82E0FE0C02E10E1B12EAA24A394B1E479
:107AC0009B2EA6E58A2EF2E57F2EE0E26E2E79E46B
:107AD000572E63E5462E50E5352E0E94763C8033C6
:107AE000B1F18133B9F1803409F46FC0813409F404
:107AF00076C0823409F485C0853409F488C08035A5
:107B000031F1823521F1813511F1853509F485C0D6
:107B1000863509F48DC0843609F496C0843709F49B
:107B200003C1853709F472C1863709F466C08091B4
:107B300003018F5F80930301853079F6E0910401A2
:107B4000F091050109950E94763C803351F60E9420
:107B5000F33CC3CF0E94763C803249F78091C0004D
:107B600085FFFCCFF092C6008091C00085FFFCCF5E
:107B70009092C6008091C00085FFFCCF8092C60025
:107B80008091C00085FFFCCF7092C6008091C0003C
:107B900085FFFCCF6092C6008091C00085FFFCCFBE
:107BA0005092C6008091C00085FFFCCF4092C60075
:107BB0008091C00085FFFCCF3092C6008091C0004C
:107BC00085FFFCCFB092C60088CF0E94763C8638F5
:107BD00008F4BDCF0E94763C0E94F33C7ECF0E9409
:107BE000763C803809F49CC0813809F40BC1823896
:107BF00009F430C1883909F48FC080E00E94C73C85
:107C00006CCF84E10E94BD3C0E94F33C66CF85E0CE
:107C10000E94BD3C0E94F33C60CF0E94763C809362
:107C200006010E94763C809307010E94F33C55CFE9
:107C30000E94763C803309F411C183E00E94BD3C70
:107C400080E00E94C73C49CF0E94763C80930902A5
:107C50000E94763C8093080280910C028E7F809374
:107C60000C020E94763C853409F409C18091080217
:107C700090910902892B89F000E010E00E94763C87
:107C8000F801E85FFE4F80830F5F1F4F809108026D
:107C9000909109020817190788F30E94763C8032F8
:107CA00009F045CF80910C0280FFF5C0609106017C
:107CB00070910701660F771F7093070160930601AB
:107CC000A0910802B09109021097C9F0E8E0F1E034
:107CD0009B01AD014E0F5F1FF999FECF32BD21BD53
:107CE000819180BDFA9AF99A2F5F3F4FE417F5070B
:107CF00099F76A0F7B1F70930701609306018091CB
:107D0000C00085FFFCCFF092C6008091C00085FFC7
:107D1000FCCFB092C600E1CE83E00E94C73CDDCE2E
:107D200082E00E94C73CD9CE0E94763C8093090233
:107D30000E94763C80930802809106019091070191
:107D4000880F991F90930701809306010E94763C4B
:107D5000853409F49AC080910C028E7F80930C02C6
:107D60000E94763C803209F0B8CE8091C00085FF39
:107D7000FCCFF092C600A0910802B09109021097C2
:107D8000C1F180910C02082F0170182F1695117007
:107D9000E0910601F0910701AF014F5F5F4FBA011B
:107DA00020E030E00023B1F4112339F49491809164
:107DB000C00085FFFCCF9093C6002F5F3F4FCB01E3
:107DC0000196FA012A173B0780F4BC014F5F5F4F11
:107DD000002351F3F999FECFF2BDE1BDF89A90B5B9
:107DE0008091C00085FFFCCFE6CF709307016093C0
:107DF00006018091C00085FDE5CE8091C00085FF21
:107E0000F8CFE0CE81E00E94C73C67CE0E94763C6E
:107E1000803209F08CCE8091C00085FFFCCFF092BB
:107E2000C6008091C00085FFFCCFE092C600809123
:107E3000C00085FFFCCFD092C6008091C00085FFB6
:107E4000FCCFC092C6008091C00085FFFCCFB092ED
:107E5000C60043CE80E10E94C73C3FCE0E94763CE4
:107E60000E94763C182F0E94763C112309F483C0AF
:107E7000113009F484C08FE00E94C73C2ECE80915F
:107E80000C02816080930C02F1CE80910C02816023
:107E900080930C0265CF809107018823880F880B9F
:107EA0008A2180930B028091060190910701880F2F
:107EB000991F90930701809306018091080280FF2B
:107EC00009C08091080290910902019690930902DD
:107ED00080930802F894F999FECF1127E0910601EA
:107EE000F0910701C8E0D1E0809108029091090269
:107EF000103091F40091570001700130D9F303E084
:107F000000935700E8950091570001700130D9F3B4
:107F100001E100935700E8950990199000915700EE
:107F200001700130D9F301E000935700E8951395F3
:107F3000103498F011270091570001700130D9F3E7
:107F400005E000935700E89500915700017001305B
:107F5000D9F301E100935700E8953296029709F0B2
:107F6000C7CF103011F00296E5CF11248091C000E8
:107F700085FFC5CEC8CE8EE10E94C73CAECD85E957
:0C7F80000E94C73CAACDF894FFCF8000FF
:00000001FF
